{
  "contractName": "Funds",
  "abi": [
    {
      "inputs": [],
      "payable": false,
      "stateMutability": "nonpayable",
      "type": "constructor"
    },
    {
      "anonymous": false,
      "inputs": [
        {
          "indexed": false,
          "internalType": "address",
          "name": "addr",
          "type": "address"
        },
        {
          "indexed": false,
          "internalType": "uint256",
          "name": "id",
          "type": "uint256"
        },
        {
          "indexed": false,
          "internalType": "string",
          "name": "name",
          "type": "string"
        },
        {
          "indexed": false,
          "internalType": "string",
          "name": "place",
          "type": "string"
        }
      ],
      "name": "AddOrg",
      "type": "event"
    },
    {
      "anonymous": false,
      "inputs": [
        {
          "indexed": false,
          "internalType": "address",
          "name": "addr",
          "type": "address"
        },
        {
          "indexed": false,
          "internalType": "uint256",
          "name": "id",
          "type": "uint256"
        },
        {
          "indexed": false,
          "internalType": "string",
          "name": "name",
          "type": "string"
        },
        {
          "indexed": false,
          "internalType": "string",
          "name": "place",
          "type": "string"
        }
      ],
      "name": "AddSup",
      "type": "event"
    },
    {
      "anonymous": false,
      "inputs": [
        {
          "indexed": false,
          "internalType": "address",
          "name": "from",
          "type": "address"
        },
        {
          "indexed": false,
          "internalType": "address",
          "name": "to",
          "type": "address"
        },
        {
          "indexed": false,
          "internalType": "uint256",
          "name": "timestamp",
          "type": "uint256"
        },
        {
          "indexed": false,
          "internalType": "string",
          "name": "message",
          "type": "string"
        }
      ],
      "name": "ConfirmOrder",
      "type": "event"
    },
    {
      "anonymous": false,
      "inputs": [
        {
          "indexed": false,
          "internalType": "address",
          "name": "from",
          "type": "address"
        },
        {
          "indexed": false,
          "internalType": "address",
          "name": "to",
          "type": "address"
        },
        {
          "indexed": false,
          "internalType": "uint256",
          "name": "amount",
          "type": "uint256"
        },
        {
          "indexed": false,
          "internalType": "uint256",
          "name": "time",
          "type": "uint256"
        },
        {
          "indexed": false,
          "internalType": "string",
          "name": "message",
          "type": "string"
        }
      ],
      "name": "Pay",
      "type": "event"
    },
    {
      "anonymous": false,
      "inputs": [
        {
          "indexed": false,
          "internalType": "address",
          "name": "from",
          "type": "address"
        },
        {
          "indexed": false,
          "internalType": "address",
          "name": "to",
          "type": "address"
        },
        {
          "indexed": false,
          "internalType": "uint256",
          "name": "value",
          "type": "uint256"
        },
        {
          "indexed": false,
          "internalType": "string",
          "name": "message",
          "type": "string"
        },
        {
          "indexed": false,
          "internalType": "uint256",
          "name": "time",
          "type": "uint256"
        }
      ],
      "name": "Req",
      "type": "event"
    },
    {
      "constant": true,
      "inputs": [],
      "name": "Owner",
      "outputs": [
        {
          "internalType": "address",
          "name": "",
          "type": "address"
        }
      ],
      "payable": false,
      "stateMutability": "view",
      "type": "function"
    },
    {
      "constant": true,
      "inputs": [
        {
          "internalType": "uint256",
          "name": "",
          "type": "uint256"
        }
      ],
      "name": "orgs",
      "outputs": [
        {
          "internalType": "address",
          "name": "addr",
          "type": "address"
        },
        {
          "internalType": "uint256",
          "name": "id",
          "type": "uint256"
        },
        {
          "internalType": "string",
          "name": "name",
          "type": "string"
        },
        {
          "internalType": "string",
          "name": "place",
          "type": "string"
        }
      ],
      "payable": false,
      "stateMutability": "view",
      "type": "function"
    },
    {
      "constant": true,
      "inputs": [
        {
          "internalType": "uint256",
          "name": "",
          "type": "uint256"
        }
      ],
      "name": "payments",
      "outputs": [
        {
          "internalType": "address",
          "name": "sender",
          "type": "address"
        },
        {
          "internalType": "address",
          "name": "receiver",
          "type": "address"
        },
        {
          "internalType": "uint256",
          "name": "amt",
          "type": "uint256"
        },
        {
          "internalType": "uint256",
          "name": "timestamp",
          "type": "uint256"
        },
        {
          "internalType": "string",
          "name": "message",
          "type": "string"
        }
      ],
      "payable": false,
      "stateMutability": "view",
      "type": "function"
    },
    {
      "constant": true,
      "inputs": [
        {
          "internalType": "uint256",
          "name": "",
          "type": "uint256"
        }
      ],
      "name": "requests",
      "outputs": [
        {
          "internalType": "address",
          "name": "sender",
          "type": "address"
        },
        {
          "internalType": "address",
          "name": "receiver",
          "type": "address"
        },
        {
          "internalType": "uint256",
          "name": "amt",
          "type": "uint256"
        },
        {
          "internalType": "string",
          "name": "message",
          "type": "string"
        },
        {
          "internalType": "uint256",
          "name": "timestamp",
          "type": "uint256"
        }
      ],
      "payable": false,
      "stateMutability": "view",
      "type": "function"
    },
    {
      "constant": true,
      "inputs": [
        {
          "internalType": "uint256",
          "name": "",
          "type": "uint256"
        }
      ],
      "name": "suppliers",
      "outputs": [
        {
          "internalType": "address",
          "name": "addr",
          "type": "address"
        },
        {
          "internalType": "uint256",
          "name": "id",
          "type": "uint256"
        },
        {
          "internalType": "string",
          "name": "name",
          "type": "string"
        },
        {
          "internalType": "string",
          "name": "place",
          "type": "string"
        }
      ],
      "payable": false,
      "stateMutability": "view",
      "type": "function"
    },
    {
      "constant": false,
      "inputs": [
        {
          "internalType": "address",
          "name": "_address",
          "type": "address"
        },
        {
          "internalType": "string",
          "name": "_name",
          "type": "string"
        },
        {
          "internalType": "string",
          "name": "_place",
          "type": "string"
        }
      ],
      "name": "addOrganization",
      "outputs": [],
      "payable": false,
      "stateMutability": "nonpayable",
      "type": "function"
    },
    {
      "constant": false,
      "inputs": [
        {
          "internalType": "address",
          "name": "_address",
          "type": "address"
        },
        {
          "internalType": "string",
          "name": "_name",
          "type": "string"
        },
        {
          "internalType": "string",
          "name": "_place",
          "type": "string"
        }
      ],
      "name": "addSupplier",
      "outputs": [],
      "payable": false,
      "stateMutability": "nonpayable",
      "type": "function"
    },
    {
      "constant": false,
      "inputs": [
        {
          "internalType": "address payable",
          "name": "rec",
          "type": "address"
        },
        {
          "internalType": "uint256",
          "name": "amount",
          "type": "uint256"
        },
        {
          "internalType": "string",
          "name": "message",
          "type": "string"
        }
      ],
      "name": "pay",
      "outputs": [],
      "payable": true,
      "stateMutability": "payable",
      "type": "function"
    },
    {
      "constant": true,
      "inputs": [],
      "name": "getAllTransactions",
      "outputs": [
        {
          "components": [
            {
              "internalType": "address",
              "name": "sender",
              "type": "address"
            },
            {
              "internalType": "address",
              "name": "receiver",
              "type": "address"
            },
            {
              "internalType": "uint256",
              "name": "amt",
              "type": "uint256"
            },
            {
              "internalType": "uint256",
              "name": "timestamp",
              "type": "uint256"
            },
            {
              "internalType": "string",
              "name": "message",
              "type": "string"
            }
          ],
          "internalType": "struct Funds.Payment[]",
          "name": "",
          "type": "tuple[]"
        }
      ],
      "payable": false,
      "stateMutability": "view",
      "type": "function"
    },
    {
      "constant": false,
      "inputs": [
        {
          "internalType": "address",
          "name": "provider",
          "type": "address"
        },
        {
          "internalType": "uint256",
          "name": "amt",
          "type": "uint256"
        },
        {
          "internalType": "string",
          "name": "message",
          "type": "string"
        }
      ],
      "name": "requestFunds",
      "outputs": [],
      "payable": false,
      "stateMutability": "nonpayable",
      "type": "function"
    },
    {
      "constant": false,
      "inputs": [
        {
          "internalType": "address",
          "name": "receiver",
          "type": "address"
        },
        {
          "internalType": "string",
          "name": "message",
          "type": "string"
        }
      ],
      "name": "confirmOrder",
      "outputs": [],
      "payable": false,
      "stateMutability": "nonpayable",
      "type": "function"
    }
  ],
  "bytecode": "0x608060405260006004556000600555600060065534801561001f57600080fd5b50336000806101000a81548173ffffffffffffffffffffffffffffffffffffffff021916908373ffffffffffffffffffffffffffffffffffffffff160217905550611b308061006f6000396000f3fe60806040526004361061009c5760003560e01c806387d817891161006457806387d81789146101925780639e796122146101d3578063b4a99a4e146101fc578063b5fabfda14610227578063cc412ce314610250578063cea23121146102795761009c565b806327506f53146100a15780633d47a354146100cc5780634a4bdb30146100f55780634f5c2e6c1461011157806381d12c5814610151575b600080fd5b3480156100ad57600080fd5b506100b66102b9565b6040516100c391906118e5565b60405180910390f35b3480156100d857600080fd5b506100f360048036036100ee919081019061136c565b61047a565b005b61010f600480360361010a91908101906112b1565b610604565b005b34801561011d57600080fd5b5061013860048036036101339190810190611452565b61079b565b6040516101489493929190611892565b60405180910390f35b34801561015d57600080fd5b5061017860048036036101739190810190611452565b61091b565b60405161018995949392919061178b565b60405180910390f35b34801561019e57600080fd5b506101b960048036036101b49190810190611452565b610a36565b6040516101ca9594939291906117e5565b60405180910390f35b3480156101df57600080fd5b506101fa60048036036101f591908101906113eb565b610b51565b005b34801561020857600080fd5b50610211610cd7565b60405161021e9190611670565b60405180910390f35b34801561023357600080fd5b5061024e6004803603610249919081019061136c565b610cfc565b005b34801561025c57600080fd5b5061027760048036036102729190810190611318565b610e86565b005b34801561028557600080fd5b506102a0600480360361029b9190810190611452565b610ff9565b6040516102b09493929190611892565b60405180910390f35b60606003805480602002602001604051908101604052809291908181526020016000905b8282101561047157838290600052602060002090600502016040518060a00160405290816000820160009054906101000a900473ffffffffffffffffffffffffffffffffffffffff1673ffffffffffffffffffffffffffffffffffffffff1673ffffffffffffffffffffffffffffffffffffffff1681526020016001820160009054906101000a900473ffffffffffffffffffffffffffffffffffffffff1673ffffffffffffffffffffffffffffffffffffffff1673ffffffffffffffffffffffffffffffffffffffff1681526020016002820154815260200160038201548152602001600482018054600181600116156101000203166002900480601f0160208091040260200160405190810160405280929190818152602001828054600181600116156101000203166002900480156104595780601f1061042e57610100808354040283529160200191610459565b820191906000526020600020905b81548152906001019060200180831161043c57829003601f168201915b505050505081525050815260200190600101906102dd565b50505050905090565b6000809054906101000a900473ffffffffffffffffffffffffffffffffffffffff1673ffffffffffffffffffffffffffffffffffffffff163373ffffffffffffffffffffffffffffffffffffffff16146104d357600080fd5b600160056000828254019250508190555060405180608001604052808473ffffffffffffffffffffffffffffffffffffffff16815260200160055481526020018381526020018281525060026000600554815260200190815260200160002060008201518160000160006101000a81548173ffffffffffffffffffffffffffffffffffffffff021916908373ffffffffffffffffffffffffffffffffffffffff16021790555060208201518160010155604082015181600201908051906020019061059f929190611179565b5060608201518160030190805190602001906105bc929190611179565b509050507f2f6240b405d042590eb49eddbadd49e081c7d0ed66c00f4d9bf81011dd50319d8360055484846040516105f7949392919061183f565b60405180910390a1505050565b600160066000828254019250508190555060036040518060a001604052803373ffffffffffffffffffffffffffffffffffffffff1681526020018573ffffffffffffffffffffffffffffffffffffffff168152602001848152602001428152602001838152509080600181540180825580915050906001820390600052602060002090600502016000909192909190915060008201518160000160006101000a81548173ffffffffffffffffffffffffffffffffffffffff021916908373ffffffffffffffffffffffffffffffffffffffff16021790555060208201518160010160006101000a81548173ffffffffffffffffffffffffffffffffffffffff021916908373ffffffffffffffffffffffffffffffffffffffff16021790555060408201518160020155606082015181600301556080820151816004019080519060200190610753929190611179565b505050507fad04aaee5606745688780781d3bbd075a702540d82f41987d12252f5d163169c338484428560405161078e95949392919061168b565b60405180910390a1505050565b60026020528060005260406000206000915090508060000160009054906101000a900473ffffffffffffffffffffffffffffffffffffffff1690806001015490806002018054600181600116156101000203166002900480601f0160208091040260200160405190810160405280929190818152602001828054600181600116156101000203166002900480156108735780601f1061084857610100808354040283529160200191610873565b820191906000526020600020905b81548152906001019060200180831161085657829003601f168201915b505050505090806003018054600181600116156101000203166002900480601f0160208091040260200160405190810160405280929190818152602001828054600181600116156101000203166002900480156109115780601f106108e657610100808354040283529160200191610911565b820191906000526020600020905b8154815290600101906020018083116108f457829003601f168201915b5050505050905084565b6007818154811061092857fe5b90600052602060002090600502016000915090508060000160009054906101000a900473ffffffffffffffffffffffffffffffffffffffff16908060010160009054906101000a900473ffffffffffffffffffffffffffffffffffffffff1690806002015490806003018054600181600116156101000203166002900480601f016020809104026020016040519081016040528092919081815260200182805460018160011615610100020316600290048015610a265780601f106109fb57610100808354040283529160200191610a26565b820191906000526020600020905b815481529060010190602001808311610a0957829003601f168201915b5050505050908060040154905085565b60038181548110610a4357fe5b90600052602060002090600502016000915090508060000160009054906101000a900473ffffffffffffffffffffffffffffffffffffffff16908060010160009054906101000a900473ffffffffffffffffffffffffffffffffffffffff1690806002015490806003015490806004018054600181600116156101000203166002900480601f016020809104026020016040519081016040528092919081815260200182805460018160011615610100020316600290048015610b475780601f10610b1c57610100808354040283529160200191610b47565b820191906000526020600020905b815481529060010190602001808311610b2a57829003601f168201915b5050505050905085565b60076040518060a001604052803373ffffffffffffffffffffffffffffffffffffffff1681526020018573ffffffffffffffffffffffffffffffffffffffff168152602001848152602001838152602001428152509080600181540180825580915050906001820390600052602060002090600502016000909192909190915060008201518160000160006101000a81548173ffffffffffffffffffffffffffffffffffffffff021916908373ffffffffffffffffffffffffffffffffffffffff16021790555060208201518160010160006101000a81548173ffffffffffffffffffffffffffffffffffffffff021916908373ffffffffffffffffffffffffffffffffffffffff160217905550604082015181600201556060820151816003019080519060200190610c85929190611179565b50608082015181600401555050507fee3eaa2f8139f744104fa23c347c337824e131f8ce1644303c1d537093c455053384848442604051610cca959493929190611731565b60405180910390a1505050565b6000809054906101000a900473ffffffffffffffffffffffffffffffffffffffff1681565b6000809054906101000a900473ffffffffffffffffffffffffffffffffffffffff1673ffffffffffffffffffffffffffffffffffffffff163373ffffffffffffffffffffffffffffffffffffffff1614610d5557600080fd5b600160046000828254019250508190555060405180608001604052808473ffffffffffffffffffffffffffffffffffffffff16815260200160045481526020018381526020018281525060016000600454815260200190815260200160002060008201518160000160006101000a81548173ffffffffffffffffffffffffffffffffffffffff021916908373ffffffffffffffffffffffffffffffffffffffff160217905550602082015181600101556040820151816002019080519060200190610e21929190611179565b506060820151816003019080519060200190610e3e929190611179565b509050507f77fea408e8c5fbfb87350b85db1010a501f9f87f6f858a8e4239b523dd9973ca836005548484604051610e79949392919061183f565b60405180910390a1505050565b600860405180608001604052803373ffffffffffffffffffffffffffffffffffffffff1681526020018473ffffffffffffffffffffffffffffffffffffffff168152602001428152602001838152509080600181540180825580915050906001820390600052602060002090600402016000909192909190915060008201518160000160006101000a81548173ffffffffffffffffffffffffffffffffffffffff021916908373ffffffffffffffffffffffffffffffffffffffff16021790555060208201518160010160006101000a81548173ffffffffffffffffffffffffffffffffffffffff021916908373ffffffffffffffffffffffffffffffffffffffff160217905550604082015181600201556060820151816003019080519060200190610fb4929190611179565b505050507fb2963dd8481351b1cf5b4d18ca5d1dbe0f6508a38acb8551810afc0900dda8ba33834284604051610fed94939291906116e5565b60405180910390a15050565b60016020528060005260406000206000915090508060000160009054906101000a900473ffffffffffffffffffffffffffffffffffffffff1690806001015490806002018054600181600116156101000203166002900480601f0160208091040260200160405190810160405280929190818152602001828054600181600116156101000203166002900480156110d15780601f106110a6576101008083540402835291602001916110d1565b820191906000526020600020905b8154815290600101906020018083116110b457829003601f168201915b505050505090806003018054600181600116156101000203166002900480601f01602080910402602001604051908101604052809291908181526020018280546001816001161561010002031660029004801561116f5780601f106111445761010080835404028352916020019161116f565b820191906000526020600020905b81548152906001019060200180831161115257829003601f168201915b5050505050905084565b828054600181600116156101000203166002900490600052602060002090601f016020900481019282601f106111ba57805160ff19168380011785556111e8565b828001600101855582156111e8579182015b828111156111e75782518255916020019190600101906111cc565b5b5090506111f591906111f9565b5090565b61121b91905b808211156112175760008160009055506001016111ff565b5090565b90565b60008135905061122d81611aa8565b92915050565b60008135905061124281611abf565b92915050565b600082601f83011261125957600080fd5b813561126c61126782611934565b611907565b9150808252602083016020830185838301111561128857600080fd5b611293838284611a55565b50505092915050565b6000813590506112ab81611ad6565b92915050565b6000806000606084860312156112c657600080fd5b60006112d486828701611233565b93505060206112e58682870161129c565b925050604084013567ffffffffffffffff81111561130257600080fd5b61130e86828701611248565b9150509250925092565b6000806040838503121561132b57600080fd5b60006113398582860161121e565b925050602083013567ffffffffffffffff81111561135657600080fd5b61136285828601611248565b9150509250929050565b60008060006060848603121561138157600080fd5b600061138f8682870161121e565b935050602084013567ffffffffffffffff8111156113ac57600080fd5b6113b886828701611248565b925050604084013567ffffffffffffffff8111156113d557600080fd5b6113e186828701611248565b9150509250925092565b60008060006060848603121561140057600080fd5b600061140e8682870161121e565b935050602061141f8682870161129c565b925050604084013567ffffffffffffffff81111561143c57600080fd5b61144886828701611248565b9150509250925092565b60006020828403121561146457600080fd5b60006114728482850161129c565b91505092915050565b600061148783836115dc565b905092915050565b61149881611a1f565b82525050565b6114a7816119d1565b82525050565b6114b6816119d1565b82525050565b60006114c782611970565b6114d1818561199e565b9350836020820285016114e385611960565b8060005b8581101561151f5784840389528151611500858261147b565b945061150b83611991565b925060208a019950506001810190506114e7565b50829750879550505050505092915050565b600061153c82611986565b61154681856119c0565b9350611556818560208601611a64565b61155f81611a97565b840191505092915050565b60006115758261197b565b61157f81856119af565b935061158f818560208601611a64565b61159881611a97565b840191505092915050565b60006115ae8261197b565b6115b881856119c0565b93506115c8818560208601611a64565b6115d181611a97565b840191505092915050565b600060a0830160008301516115f4600086018261149e565b506020830151611607602086018261149e565b50604083015161161a6040860182611652565b50606083015161162d6060860182611652565b5060808301518482036080860152611645828261156a565b9150508091505092915050565b61165b81611a15565b82525050565b61166a81611a15565b82525050565b600060208201905061168560008301846114ad565b92915050565b600060a0820190506116a0600083018861148f565b6116ad602083018761148f565b6116ba6040830186611661565b6116c76060830185611661565b81810360808301526116d98184611531565b90509695505050505050565b60006080820190506116fa600083018761148f565b61170760208301866114ad565b6117146040830185611661565b81810360608301526117268184611531565b905095945050505050565b600060a082019050611746600083018861148f565b61175360208301876114ad565b6117606040830186611661565b81810360608301526117728185611531565b90506117816080830184611661565b9695505050505050565b600060a0820190506117a060008301886114ad565b6117ad60208301876114ad565b6117ba6040830186611661565b81810360608301526117cc81856115a3565b90506117db6080830184611661565b9695505050505050565b600060a0820190506117fa60008301886114ad565b61180760208301876114ad565b6118146040830186611661565b6118216060830185611661565b818103608083015261183381846115a3565b90509695505050505050565b600060808201905061185460008301876114ad565b6118616020830186611661565b81810360408301526118738185611531565b905081810360608301526118878184611531565b905095945050505050565b60006080820190506118a760008301876114ad565b6118b46020830186611661565b81810360408301526118c681856115a3565b905081810360608301526118da81846115a3565b905095945050505050565b600060208201905081810360008301526118ff81846114bc565b905092915050565b6000604051905081810181811067ffffffffffffffff8211171561192a57600080fd5b8060405250919050565b600067ffffffffffffffff82111561194b57600080fd5b601f19601f8301169050602081019050919050565b6000819050602082019050919050565b600081519050919050565b600081519050919050565b600081519050919050565b6000602082019050919050565b600082825260208201905092915050565b600082825260208201905092915050565b600082825260208201905092915050565b60006119dc826119f5565b9050919050565b60006119ee826119f5565b9050919050565b600073ffffffffffffffffffffffffffffffffffffffff82169050919050565b6000819050919050565b6000611a2a82611a31565b9050919050565b6000611a3c82611a43565b9050919050565b6000611a4e826119f5565b9050919050565b82818337600083830152505050565b60005b83811015611a82578082015181840152602081019050611a67565b83811115611a91576000848401525b50505050565b6000601f19601f8301169050919050565b611ab1816119d1565b8114611abc57600080fd5b50565b611ac8816119e3565b8114611ad357600080fd5b50565b611adf81611a15565b8114611aea57600080fd5b5056fea365627a7a7231582096ad862fad9ed26416e90e56ec667fd9571108089cc71a5e633df6e7f9dabe836c6578706572696d656e74616cf564736f6c63430005100040",
  "source": "// SPDX-License-Identifier: MIT\npragma solidity >=0.4.22 <0.9.0;\npragma experimental ABIEncoderV2;\ncontract Funds {\n    //Smart Contract owner will be the person who deploys the contract only he can authorize various roles like retailer, Manufacturer,etc\n    address public Owner;\n\n    //note this constructor will be called when smart contract will be deployed on blockchain\n    constructor() public {\n        Owner = msg.sender;\n    }\n\n    modifier onlyOwner() {\n        require(msg.sender == Owner);\n        _;\n    }\n\n    struct Supplier{\n        address addr;\n        uint id;\n        string name;\n        string place;\n    }\n\n    mapping(uint=>Supplier) public suppliers;\n\n    struct Organization{\n        address addr;\n        uint id;\n        string name;\n        string place;\n    }\n    \n    mapping(uint=>Organization) public orgs;\n\n    struct Payment{//transactioin details\n        address sender;\n        address receiver;\n        uint amt;\n        uint timestamp;\n        string message;\n    }\n\n    Payment[] public payments;\n\n    uint supCnt=0;\n    uint orgCnt=0;\n    uint transactionCount=0;\n\n    event AddOrg(address addr,uint id,string name,string place);\n\n    function addOrganization(\n        address _address,\n        string memory _name,\n        string memory _place\n    ) public onlyOwner(){\n        orgCnt+=1;\n        orgs[orgCnt]=Organization(_address,orgCnt,_name,_place);\n        emit AddOrg(_address,orgCnt,_name,_place);\n    }\n\n    event AddSup(address addr,uint id,string name,string place);\n\n    function addSupplier(\n        address _address,\n        string memory _name,\n        string memory _place\n    ) public onlyOwner(){\n        supCnt+=1;\n        suppliers[supCnt]=Supplier(_address,supCnt,_name,_place);\n        emit AddSup(_address,orgCnt,_name,_place);\n    }\n\n\n    event Pay(address from,address to, uint amount, uint time,string message);\n\n    function pay(address payable rec,uint amount,string memory message) public payable {\n        transactionCount+=1;\n        payments.push(Payment(msg.sender,rec, amount, block.timestamp, message));\n        // bool sent = rec.send(msg.value);\n        // require(sent, \"Failed to send Ether\");\n        emit Pay(msg.sender,rec, amount,block.timestamp, message);\n    }\n\n    function getAllTransactions() public view returns (Payment[] memory){\n        return payments;\n    }\n\n    struct Request{\n        address sender;\n        address receiver;\n        uint amt;\n        string message;\n        uint timestamp;\n    }\n    Request[] public requests;\n\n\n    event Req(address from,address to,uint value,string message,uint time);\n\n    function requestFunds(\n        address provider,\n        uint amt,\n        string memory message\n    ) public{\n        requests.push(Request(msg.sender,provider,amt,message, block.timestamp));\n        emit Req(msg.sender,provider,amt,message,block.timestamp);\n    }\n\n    struct Confirmation{\n        address sender;\n        address receiver;\n        uint timestamp;\n        string message;\n    }\n\n    Confirmation[] confOrders;\n    event ConfirmOrder(address from, address to,uint timestamp,string message);\n    \n    function confirmOrder(\n        address receiver,\n        string memory message\n        ) public{\n            confOrders.push(Confirmation(msg.sender, receiver, block.timestamp, message));\n            emit ConfirmOrder(msg.sender, receiver, block.timestamp, message);\n    }\n \n}",
  "sourcePath": "/home/pavan/Desktop/Project/contracts/Funds.sol",
  "compiler": {
    "name": "solc",
    "version": "0.5.16+commit.9c3226ce.Emscripten.clang"
  },
  "schemaVersion": "3.4.10",
  "updatedAt": "2022-12-01T21:42:45.984Z",
  "networkType": "ethereum",
  "devdoc": {
    "methods": {}
  },
  "userdoc": {
    "methods": {}
  }
}