{
  "contractName": "Funds",
  "abi": [
    {
      "inputs": [],
      "payable": false,
      "stateMutability": "nonpayable",
      "type": "constructor"
    },
    {
      "anonymous": false,
      "inputs": [
        {
          "indexed": false,
          "internalType": "address",
          "name": "addr",
          "type": "address"
        },
        {
          "indexed": false,
          "internalType": "uint256",
          "name": "id",
          "type": "uint256"
        },
        {
          "indexed": false,
          "internalType": "string",
          "name": "name",
          "type": "string"
        },
        {
          "indexed": false,
          "internalType": "string",
          "name": "place",
          "type": "string"
        }
      ],
      "name": "AddOrg",
      "type": "event"
    },
    {
      "anonymous": false,
      "inputs": [
        {
          "indexed": false,
          "internalType": "address",
          "name": "addr",
          "type": "address"
        },
        {
          "indexed": false,
          "internalType": "uint256",
          "name": "id",
          "type": "uint256"
        },
        {
          "indexed": false,
          "internalType": "string",
          "name": "name",
          "type": "string"
        },
        {
          "indexed": false,
          "internalType": "string",
          "name": "place",
          "type": "string"
        }
      ],
      "name": "AddSup",
      "type": "event"
    },
    {
      "anonymous": false,
      "inputs": [
        {
          "indexed": false,
          "internalType": "address",
          "name": "from",
          "type": "address"
        },
        {
          "indexed": false,
          "internalType": "address",
          "name": "to",
          "type": "address"
        },
        {
          "indexed": false,
          "internalType": "uint256",
          "name": "timestamp",
          "type": "uint256"
        },
        {
          "indexed": false,
          "internalType": "string",
          "name": "message",
          "type": "string"
        }
      ],
      "name": "ConfirmOrder",
      "type": "event"
    },
    {
      "anonymous": false,
      "inputs": [
        {
          "indexed": false,
          "internalType": "address",
          "name": "from",
          "type": "address"
        },
        {
          "indexed": false,
          "internalType": "address",
          "name": "to",
          "type": "address"
        },
        {
          "indexed": false,
          "internalType": "uint256",
          "name": "amount",
          "type": "uint256"
        },
        {
          "indexed": false,
          "internalType": "uint256",
          "name": "time",
          "type": "uint256"
        },
        {
          "indexed": false,
          "internalType": "string",
          "name": "message",
          "type": "string"
        }
      ],
      "name": "Pay",
      "type": "event"
    },
    {
      "anonymous": false,
      "inputs": [
        {
          "indexed": false,
          "internalType": "address",
          "name": "from",
          "type": "address"
        },
        {
          "indexed": false,
          "internalType": "address",
          "name": "to",
          "type": "address"
        },
        {
          "indexed": false,
          "internalType": "uint256",
          "name": "value",
          "type": "uint256"
        },
        {
          "indexed": false,
          "internalType": "string",
          "name": "message",
          "type": "string"
        },
        {
          "indexed": false,
          "internalType": "uint256",
          "name": "time",
          "type": "uint256"
        }
      ],
      "name": "Req",
      "type": "event"
    },
    {
      "anonymous": false,
      "inputs": [
        {
          "indexed": false,
          "internalType": "uint256",
          "name": "id",
          "type": "uint256"
        },
        {
          "indexed": false,
          "internalType": "address",
          "name": "addr",
          "type": "address"
        },
        {
          "indexed": false,
          "internalType": "string",
          "name": "name",
          "type": "string"
        },
        {
          "indexed": false,
          "internalType": "string",
          "name": "place",
          "type": "string"
        }
      ],
      "name": "removeOrg",
      "type": "event"
    },
    {
      "constant": true,
      "inputs": [],
      "name": "Owner",
      "outputs": [
        {
          "internalType": "address",
          "name": "",
          "type": "address"
        }
      ],
      "payable": false,
      "stateMutability": "view",
      "type": "function"
    },
    {
      "constant": true,
      "inputs": [
        {
          "internalType": "address",
          "name": "",
          "type": "address"
        }
      ],
      "name": "orgs",
      "outputs": [
        {
          "internalType": "address",
          "name": "addr",
          "type": "address"
        },
        {
          "internalType": "uint256",
          "name": "id",
          "type": "uint256"
        },
        {
          "internalType": "string",
          "name": "name",
          "type": "string"
        },
        {
          "internalType": "string",
          "name": "place",
          "type": "string"
        }
      ],
      "payable": false,
      "stateMutability": "view",
      "type": "function"
    },
    {
      "constant": true,
      "inputs": [
        {
          "internalType": "uint256",
          "name": "",
          "type": "uint256"
        }
      ],
      "name": "payments",
      "outputs": [
        {
          "internalType": "address",
          "name": "sender",
          "type": "address"
        },
        {
          "internalType": "address",
          "name": "receiver",
          "type": "address"
        },
        {
          "internalType": "uint256",
          "name": "amt",
          "type": "uint256"
        },
        {
          "internalType": "uint256",
          "name": "timestamp",
          "type": "uint256"
        },
        {
          "internalType": "string",
          "name": "message",
          "type": "string"
        }
      ],
      "payable": false,
      "stateMutability": "view",
      "type": "function"
    },
    {
      "constant": true,
      "inputs": [
        {
          "internalType": "uint256",
          "name": "",
          "type": "uint256"
        }
      ],
      "name": "requests",
      "outputs": [
        {
          "internalType": "address",
          "name": "sender",
          "type": "address"
        },
        {
          "internalType": "address",
          "name": "receiver",
          "type": "address"
        },
        {
          "internalType": "uint256",
          "name": "amt",
          "type": "uint256"
        },
        {
          "internalType": "string",
          "name": "message",
          "type": "string"
        },
        {
          "internalType": "uint256",
          "name": "timestamp",
          "type": "uint256"
        }
      ],
      "payable": false,
      "stateMutability": "view",
      "type": "function"
    },
    {
      "constant": true,
      "inputs": [
        {
          "internalType": "uint256",
          "name": "",
          "type": "uint256"
        }
      ],
      "name": "suppliers",
      "outputs": [
        {
          "internalType": "address",
          "name": "addr",
          "type": "address"
        },
        {
          "internalType": "uint256",
          "name": "id",
          "type": "uint256"
        },
        {
          "internalType": "string",
          "name": "name",
          "type": "string"
        },
        {
          "internalType": "string",
          "name": "place",
          "type": "string"
        }
      ],
      "payable": false,
      "stateMutability": "view",
      "type": "function"
    },
    {
      "constant": false,
      "inputs": [
        {
          "internalType": "address",
          "name": "_address",
          "type": "address"
        },
        {
          "internalType": "string",
          "name": "_name",
          "type": "string"
        },
        {
          "internalType": "string",
          "name": "_place",
          "type": "string"
        }
      ],
      "name": "addOrganization",
      "outputs": [],
      "payable": false,
      "stateMutability": "nonpayable",
      "type": "function"
    },
    {
      "constant": false,
      "inputs": [
        {
          "internalType": "address",
          "name": "_address",
          "type": "address"
        }
      ],
      "name": "removeOrganization",
      "outputs": [],
      "payable": false,
      "stateMutability": "nonpayable",
      "type": "function"
    },
    {
      "constant": false,
      "inputs": [
        {
          "internalType": "address",
          "name": "_address",
          "type": "address"
        },
        {
          "internalType": "string",
          "name": "_name",
          "type": "string"
        },
        {
          "internalType": "string",
          "name": "_place",
          "type": "string"
        }
      ],
      "name": "addSupplier",
      "outputs": [],
      "payable": false,
      "stateMutability": "nonpayable",
      "type": "function"
    },
    {
      "constant": false,
      "inputs": [
        {
          "internalType": "address",
          "name": "rec",
          "type": "address"
        },
        {
          "internalType": "uint256",
          "name": "amount",
          "type": "uint256"
        },
        {
          "internalType": "string",
          "name": "message",
          "type": "string"
        }
      ],
      "name": "pay",
      "outputs": [],
      "payable": false,
      "stateMutability": "nonpayable",
      "type": "function"
    },
    {
      "constant": true,
      "inputs": [],
      "name": "getAllTransactions",
      "outputs": [
        {
          "components": [
            {
              "internalType": "address",
              "name": "sender",
              "type": "address"
            },
            {
              "internalType": "address",
              "name": "receiver",
              "type": "address"
            },
            {
              "internalType": "uint256",
              "name": "amt",
              "type": "uint256"
            },
            {
              "internalType": "uint256",
              "name": "timestamp",
              "type": "uint256"
            },
            {
              "internalType": "string",
              "name": "message",
              "type": "string"
            }
          ],
          "internalType": "struct Funds.Payment[]",
          "name": "",
          "type": "tuple[]"
        }
      ],
      "payable": false,
      "stateMutability": "view",
      "type": "function"
    },
    {
      "constant": false,
      "inputs": [
        {
          "internalType": "address",
          "name": "addr",
          "type": "address"
        }
      ],
      "name": "getSpecificTrans",
      "outputs": [
        {
          "internalType": "address[]",
          "name": "",
          "type": "address[]"
        },
        {
          "internalType": "uint256[]",
          "name": "",
          "type": "uint256[]"
        }
      ],
      "payable": false,
      "stateMutability": "nonpayable",
      "type": "function"
    },
    {
      "constant": false,
      "inputs": [
        {
          "internalType": "address",
          "name": "provider",
          "type": "address"
        },
        {
          "internalType": "uint256",
          "name": "amt",
          "type": "uint256"
        },
        {
          "internalType": "string",
          "name": "message",
          "type": "string"
        }
      ],
      "name": "requestFunds",
      "outputs": [],
      "payable": false,
      "stateMutability": "nonpayable",
      "type": "function"
    },
    {
      "constant": false,
      "inputs": [
        {
          "internalType": "address",
          "name": "receiver",
          "type": "address"
        },
        {
          "internalType": "string",
          "name": "message",
          "type": "string"
        }
      ],
      "name": "confirmOrder",
      "outputs": [],
      "payable": false,
      "stateMutability": "nonpayable",
      "type": "function"
    }
  ],
  "bytecode": "0x608060405260006004556000600555600060065534801561001f57600080fd5b50336000806101000a81548173ffffffffffffffffffffffffffffffffffffffff021916908373ffffffffffffffffffffffffffffffffffffffff1602179055506123ae8061006f6000396000f3fe608060405234801561001057600080fd5b50600436106100cf5760003560e01c806387d817891161008c578063b5fabfda11610066578063b5fabfda1461021b578063cc412ce314610237578063cea2312114610253578063e6ddce3014610286576100cf565b806387d81789146101ad5780639e796122146101e1578063b4a99a4e146101fd576100cf565b806327506f53146100d45780633bf479ff146100f25780633d47a354146101255780634a4bdb30146101415780636ff2c6101461015d57806381d12c5814610179575b600080fd5b6100dc6102b7565b6040516100e991906120b2565b60405180910390f35b61010c6004803603610107919081019061190a565b610478565b60405161011c9493929190612028565b60405180910390f35b61013f600480360361013a9190810190611987565b6105f8565b005b61015b60048036036101569190810190611a06565b6107ac565b005b6101776004803603610172919081019061190a565b610943565b005b610193600480360361018e9190810190611a6d565b610b93565b6040516101a4959493929190611f21565b60405180910390f35b6101c760048036036101c29190810190611a6d565b610cae565b6040516101d8959493929190611f7b565b60405180910390f35b6101fb60048036036101f69190810190611a06565b610dc9565b005b610205610f4f565b6040516102129190611e06565b60405180910390f35b61023560048036036102309190810190611987565b610f74565b005b610251600480360361024c9190810190611933565b6110fe565b005b61026d60048036036102689190810190611a6d565b611271565b60405161027d9493929190612028565b60405180910390f35b6102a0600480360361029b919081019061190a565b6113f1565b6040516102ae92919061207b565b60405180910390f35b60606003805480602002602001604051908101604052809291908181526020016000905b8282101561046f57838290600052602060002090600502016040518060a00160405290816000820160009054906101000a900473ffffffffffffffffffffffffffffffffffffffff1673ffffffffffffffffffffffffffffffffffffffff1673ffffffffffffffffffffffffffffffffffffffff1681526020016001820160009054906101000a900473ffffffffffffffffffffffffffffffffffffffff1673ffffffffffffffffffffffffffffffffffffffff1673ffffffffffffffffffffffffffffffffffffffff1681526020016002820154815260200160038201548152602001600482018054600181600116156101000203166002900480601f0160208091040260200160405190810160405280929190818152602001828054600181600116156101000203166002900480156104575780601f1061042c57610100808354040283529160200191610457565b820191906000526020600020905b81548152906001019060200180831161043a57829003601f168201915b505050505081525050815260200190600101906102db565b50505050905090565b60026020528060005260406000206000915090508060000160009054906101000a900473ffffffffffffffffffffffffffffffffffffffff1690806001015490806002018054600181600116156101000203166002900480601f0160208091040260200160405190810160405280929190818152602001828054600181600116156101000203166002900480156105505780601f1061052557610100808354040283529160200191610550565b820191906000526020600020905b81548152906001019060200180831161053357829003601f168201915b505050505090806003018054600181600116156101000203166002900480601f0160208091040260200160405190810160405280929190818152602001828054600181600116156101000203166002900480156105ee5780601f106105c3576101008083540402835291602001916105ee565b820191906000526020600020905b8154815290600101906020018083116105d157829003601f168201915b5050505050905084565b6000809054906101000a900473ffffffffffffffffffffffffffffffffffffffff1673ffffffffffffffffffffffffffffffffffffffff163373ffffffffffffffffffffffffffffffffffffffff161461065157600080fd5b600160056000828254019250508190555060405180608001604052808473ffffffffffffffffffffffffffffffffffffffff168152602001600554815260200183815260200182815250600260008573ffffffffffffffffffffffffffffffffffffffff1673ffffffffffffffffffffffffffffffffffffffff16815260200190815260200160002060008201518160000160006101000a81548173ffffffffffffffffffffffffffffffffffffffff021916908373ffffffffffffffffffffffffffffffffffffffff160217905550602082015181600101556040820151816002019080519060200190610747929190611718565b506060820151816003019080519060200190610764929190611718565b509050507f2f6240b405d042590eb49eddbadd49e081c7d0ed66c00f4d9bf81011dd50319d83600554848460405161079f9493929190611fd5565b60405180910390a1505050565b600160066000828254019250508190555060036040518060a001604052803373ffffffffffffffffffffffffffffffffffffffff1681526020018573ffffffffffffffffffffffffffffffffffffffff168152602001848152602001428152602001838152509080600181540180825580915050906001820390600052602060002090600502016000909192909190915060008201518160000160006101000a81548173ffffffffffffffffffffffffffffffffffffffff021916908373ffffffffffffffffffffffffffffffffffffffff16021790555060208201518160010160006101000a81548173ffffffffffffffffffffffffffffffffffffffff021916908373ffffffffffffffffffffffffffffffffffffffff160217905550604082015181600201556060820151816003015560808201518160040190805190602001906108fb929190611718565b505050507fad04aaee5606745688780781d3bbd075a702540d82f41987d12252f5d163169c3384844285604051610936959493929190611ec7565b60405180910390a1505050565b6000809054906101000a900473ffffffffffffffffffffffffffffffffffffffff1673ffffffffffffffffffffffffffffffffffffffff163373ffffffffffffffffffffffffffffffffffffffff161461099c57600080fd5b7f268656e33987d8d2afd02a8a14c5eda60d2c6c38a52f2c53c08a21531c186ae7600260008373ffffffffffffffffffffffffffffffffffffffff1673ffffffffffffffffffffffffffffffffffffffff16815260200190815260200160002060010154600260008473ffffffffffffffffffffffffffffffffffffffff1673ffffffffffffffffffffffffffffffffffffffff16815260200190815260200160002060000160009054906101000a900473ffffffffffffffffffffffffffffffffffffffff16600260008573ffffffffffffffffffffffffffffffffffffffff1673ffffffffffffffffffffffffffffffffffffffff168152602001908152602001600020600201600260008673ffffffffffffffffffffffffffffffffffffffff1673ffffffffffffffffffffffffffffffffffffffff168152602001908152602001600020600301604051610af794939291906120d4565b60405180910390a1600260008273ffffffffffffffffffffffffffffffffffffffff1673ffffffffffffffffffffffffffffffffffffffff168152602001908152602001600020600080820160006101000a81549073ffffffffffffffffffffffffffffffffffffffff02191690556001820160009055600282016000610b7e9190611798565b600382016000610b8e9190611798565b505050565b60088181548110610ba057fe5b90600052602060002090600502016000915090508060000160009054906101000a900473ffffffffffffffffffffffffffffffffffffffff16908060010160009054906101000a900473ffffffffffffffffffffffffffffffffffffffff1690806002015490806003018054600181600116156101000203166002900480601f016020809104026020016040519081016040528092919081815260200182805460018160011615610100020316600290048015610c9e5780601f10610c7357610100808354040283529160200191610c9e565b820191906000526020600020905b815481529060010190602001808311610c8157829003601f168201915b5050505050908060040154905085565b60038181548110610cbb57fe5b90600052602060002090600502016000915090508060000160009054906101000a900473ffffffffffffffffffffffffffffffffffffffff16908060010160009054906101000a900473ffffffffffffffffffffffffffffffffffffffff1690806002015490806003015490806004018054600181600116156101000203166002900480601f016020809104026020016040519081016040528092919081815260200182805460018160011615610100020316600290048015610dbf5780601f10610d9457610100808354040283529160200191610dbf565b820191906000526020600020905b815481529060010190602001808311610da257829003601f168201915b5050505050905085565b60086040518060a001604052803373ffffffffffffffffffffffffffffffffffffffff1681526020018573ffffffffffffffffffffffffffffffffffffffff168152602001848152602001838152602001428152509080600181540180825580915050906001820390600052602060002090600502016000909192909190915060008201518160000160006101000a81548173ffffffffffffffffffffffffffffffffffffffff021916908373ffffffffffffffffffffffffffffffffffffffff16021790555060208201518160010160006101000a81548173ffffffffffffffffffffffffffffffffffffffff021916908373ffffffffffffffffffffffffffffffffffffffff160217905550604082015181600201556060820151816003019080519060200190610efd929190611718565b50608082015181600401555050507fee3eaa2f8139f744104fa23c347c337824e131f8ce1644303c1d537093c455053384848442604051610f42959493929190611e6d565b60405180910390a1505050565b6000809054906101000a900473ffffffffffffffffffffffffffffffffffffffff1681565b6000809054906101000a900473ffffffffffffffffffffffffffffffffffffffff1673ffffffffffffffffffffffffffffffffffffffff163373ffffffffffffffffffffffffffffffffffffffff1614610fcd57600080fd5b600160046000828254019250508190555060405180608001604052808473ffffffffffffffffffffffffffffffffffffffff16815260200160045481526020018381526020018281525060016000600454815260200190815260200160002060008201518160000160006101000a81548173ffffffffffffffffffffffffffffffffffffffff021916908373ffffffffffffffffffffffffffffffffffffffff160217905550602082015181600101556040820151816002019080519060200190611099929190611718565b5060608201518160030190805190602001906110b6929190611718565b509050507f77fea408e8c5fbfb87350b85db1010a501f9f87f6f858a8e4239b523dd9973ca8360055484846040516110f19493929190611fd5565b60405180910390a1505050565b600960405180608001604052803373ffffffffffffffffffffffffffffffffffffffff1681526020018473ffffffffffffffffffffffffffffffffffffffff168152602001428152602001838152509080600181540180825580915050906001820390600052602060002090600402016000909192909190915060008201518160000160006101000a81548173ffffffffffffffffffffffffffffffffffffffff021916908373ffffffffffffffffffffffffffffffffffffffff16021790555060208201518160010160006101000a81548173ffffffffffffffffffffffffffffffffffffffff021916908373ffffffffffffffffffffffffffffffffffffffff16021790555060408201518160020155606082015181600301908051906020019061122c929190611718565b505050507fb2963dd8481351b1cf5b4d18ca5d1dbe0f6508a38acb8551810afc0900dda8ba338342846040516112659493929190611e21565b60405180910390a15050565b60016020528060005260406000206000915090508060000160009054906101000a900473ffffffffffffffffffffffffffffffffffffffff1690806001015490806002018054600181600116156101000203166002900480601f0160208091040260200160405190810160405280929190818152602001828054600181600116156101000203166002900480156113495780601f1061131e57610100808354040283529160200191611349565b820191906000526020600020905b81548152906001019060200180831161132c57829003601f168201915b505050505090806003018054600181600116156101000203166002900480601f0160208091040260200160405190810160405280929190818152602001828054600181600116156101000203166002900480156113e75780601f106113bc576101008083540402835291602001916113e7565b820191906000526020600020905b8154815290600101906020018083116113ca57829003601f168201915b5050505050905084565b606080606060038054905060405190808252806020026020018201604052801561142a5781602001602082028038833980820191505090505b50905060606003805490506040519080825280602002602001820160405280156114635781602001602082028038833980820191505090505b50905060008090505b60038054905081101561170a576003818154811061148657fe5b906000526020600020906005020160000160009054906101000a900473ffffffffffffffffffffffffffffffffffffffff168382815181106114c457fe5b602002602001019073ffffffffffffffffffffffffffffffffffffffff16908173ffffffffffffffffffffffffffffffffffffffff16815250506003818154811061150b57fe5b90600052602060002090600502016002015482828151811061152957fe5b6020026020010181815250508573ffffffffffffffffffffffffffffffffffffffff166003828154811061155957fe5b906000526020600020906005020160000160009054906101000a900473ffffffffffffffffffffffffffffffffffffffff1673ffffffffffffffffffffffffffffffffffffffff1614156116fd576007600382815481106115b657fe5b9060005260206000209060050201908060018154018082558091505090600182039060005260206000209060050201600090919290919091506000820160009054906101000a900473ffffffffffffffffffffffffffffffffffffffff168160000160006101000a81548173ffffffffffffffffffffffffffffffffffffffff021916908373ffffffffffffffffffffffffffffffffffffffff1602179055506001820160009054906101000a900473ffffffffffffffffffffffffffffffffffffffff168160010160006101000a81548173ffffffffffffffffffffffffffffffffffffffff021916908373ffffffffffffffffffffffffffffffffffffffff1602179055506002820154816002015560038201548160030155600482018160040190805460018160011615610100020316600290046116f89291906117e0565b505050505b808060010191505061146c565b508181935093505050915091565b828054600181600116156101000203166002900490600052602060002090601f016020900481019282601f1061175957805160ff1916838001178555611787565b82800160010185558215611787579182015b8281111561178657825182559160200191906001019061176b565b5b5090506117949190611867565b5090565b50805460018160011615610100020316600290046000825580601f106117be57506117dd565b601f0160209004906000526020600020908101906117dc9190611867565b5b50565b828054600181600116156101000203166002900490600052602060002090601f016020900481019282601f106118195780548555611856565b8280016001018555821561185657600052602060002091601f016020900482015b8281111561185557825482559160010191906001019061183a565b5b5090506118639190611867565b5090565b61188991905b8082111561188557600081600090555060010161186d565b5090565b90565b60008135905061189b8161233d565b92915050565b600082601f8301126118b257600080fd5b81356118c56118c082612154565b612127565b915080825260208301602083018583830111156118e157600080fd5b6118ec8382846122ea565b50505092915050565b60008135905061190481612354565b92915050565b60006020828403121561191c57600080fd5b600061192a8482850161188c565b91505092915050565b6000806040838503121561194657600080fd5b60006119548582860161188c565b925050602083013567ffffffffffffffff81111561197157600080fd5b61197d858286016118a1565b9150509250929050565b60008060006060848603121561199c57600080fd5b60006119aa8682870161188c565b935050602084013567ffffffffffffffff8111156119c757600080fd5b6119d3868287016118a1565b925050604084013567ffffffffffffffff8111156119f057600080fd5b6119fc868287016118a1565b9150509250925092565b600080600060608486031215611a1b57600080fd5b6000611a298682870161188c565b9350506020611a3a868287016118f5565b925050604084013567ffffffffffffffff811115611a5757600080fd5b611a63868287016118a1565b9150509250925092565b600060208284031215611a7f57600080fd5b6000611a8d848285016118f5565b91505092915050565b6000611aa28383611ae9565b60208301905092915050565b6000611aba8383611d72565b905092915050565b6000611ace8383611de8565b60208301905092915050565b611ae3816122b4565b82525050565b611af281612278565b82525050565b611b0181612278565b82525050565b6000611b12826121c5565b611b1c8185612223565b9350611b2783612180565b8060005b83811015611b58578151611b3f8882611a96565b9750611b4a836121fc565b925050600181019050611b2b565b5085935050505092915050565b6000611b70826121d0565b611b7a8185612234565b935083602082028501611b8c85612190565b8060005b85811015611bc85784840389528151611ba98582611aae565b9450611bb483612209565b925060208a01995050600181019050611b90565b50829750879550505050505092915050565b6000611be5826121db565b611bef8185612245565b9350611bfa836121a0565b8060005b83811015611c2b578151611c128882611ac2565b9750611c1d83612216565b925050600181019050611bfe565b5085935050505092915050565b6000611c43826121f1565b611c4d8185612267565b9350611c5d8185602086016122f9565b611c668161232c565b840191505092915050565b6000611c7c826121e6565b611c868185612256565b9350611c968185602086016122f9565b611c9f8161232c565b840191505092915050565b6000611cb5826121e6565b611cbf8185612267565b9350611ccf8185602086016122f9565b611cd88161232c565b840191505092915050565b600081546001811660008114611d005760018114611d2657611d6a565b607f6002830416611d118187612267565b955060ff198316865260208601935050611d6a565b60028204611d348187612267565b9550611d3f856121b0565b60005b82811015611d6157815481890152600182019150602081019050611d42565b80880195505050505b505092915050565b600060a083016000830151611d8a6000860182611ae9565b506020830151611d9d6020860182611ae9565b506040830151611db06040860182611de8565b506060830151611dc36060860182611de8565b5060808301518482036080860152611ddb8282611c71565b9150508091505092915050565b611df1816122aa565b82525050565b611e00816122aa565b82525050565b6000602082019050611e1b6000830184611af8565b92915050565b6000608082019050611e366000830187611ada565b611e436020830186611af8565b611e506040830185611df7565b8181036060830152611e628184611c38565b905095945050505050565b600060a082019050611e826000830188611ada565b611e8f6020830187611af8565b611e9c6040830186611df7565b8181036060830152611eae8185611c38565b9050611ebd6080830184611df7565b9695505050505050565b600060a082019050611edc6000830188611ada565b611ee96020830187611af8565b611ef66040830186611df7565b611f036060830185611df7565b8181036080830152611f158184611c38565b90509695505050505050565b600060a082019050611f366000830188611af8565b611f436020830187611af8565b611f506040830186611df7565b8181036060830152611f628185611caa565b9050611f716080830184611df7565b9695505050505050565b600060a082019050611f906000830188611af8565b611f9d6020830187611af8565b611faa6040830186611df7565b611fb76060830185611df7565b8181036080830152611fc98184611caa565b90509695505050505050565b6000608082019050611fea6000830187611af8565b611ff76020830186611df7565b81810360408301526120098185611c38565b9050818103606083015261201d8184611c38565b905095945050505050565b600060808201905061203d6000830187611af8565b61204a6020830186611df7565b818103604083015261205c8185611caa565b905081810360608301526120708184611caa565b905095945050505050565b600060408201905081810360008301526120958185611b07565b905081810360208301526120a98184611bda565b90509392505050565b600060208201905081810360008301526120cc8184611b65565b905092915050565b60006080820190506120e96000830187611df7565b6120f66020830186611af8565b81810360408301526121088185611ce3565b9050818103606083015261211c8184611ce3565b905095945050505050565b6000604051905081810181811067ffffffffffffffff8211171561214a57600080fd5b8060405250919050565b600067ffffffffffffffff82111561216b57600080fd5b601f19601f8301169050602081019050919050565b6000819050602082019050919050565b6000819050602082019050919050565b6000819050602082019050919050565b60008190508160005260206000209050919050565b600081519050919050565b600081519050919050565b600081519050919050565b600081519050919050565b600081519050919050565b6000602082019050919050565b6000602082019050919050565b6000602082019050919050565b600082825260208201905092915050565b600082825260208201905092915050565b600082825260208201905092915050565b600082825260208201905092915050565b600082825260208201905092915050565b60006122838261228a565b9050919050565b600073ffffffffffffffffffffffffffffffffffffffff82169050919050565b6000819050919050565b60006122bf826122c6565b9050919050565b60006122d1826122d8565b9050919050565b60006122e38261228a565b9050919050565b82818337600083830152505050565b60005b838110156123175780820151818401526020810190506122fc565b83811115612326576000848401525b50505050565b6000601f19601f8301169050919050565b61234681612278565b811461235157600080fd5b50565b61235d816122aa565b811461236857600080fd5b5056fea365627a7a72315820055f230bb9581884e904cd6def8b749e670739173190180d7e0fcff298de304c6c6578706572696d656e74616cf564736f6c63430005100040",
  "source": "// SPDX-License-Identifier: MIT\npragma solidity >=0.4.22 <0.9.0;\npragma experimental ABIEncoderV2;\n\ncontract Funds {\n    //Smart Contract owner will be the person who deploys the contract only he can authorize various roles like retailer, Manufacturer,etc\n    address public Owner;\n\n    //note this constructor will be called when smart contract will be deployed on blockchain\n    constructor() public{\n        Owner = msg.sender;\n    }\n\n    modifier onlyOwner() {\n        require(msg.sender == Owner);\n        _;\n    }\n\n    struct Supplier{\n        address addr;\n        uint id;\n        string name;\n        string place;\n    }\n\n    mapping(uint=>Supplier) public suppliers;\n\n    struct Organization{\n        address addr;\n        uint id;\n        string name;\n        string place;\n    }\n    \n    mapping(address=>Organization) public orgs;\n\n    struct Payment{//transactioin details\n        address sender;\n        address receiver;\n        uint amt;\n        uint timestamp;\n        string message;\n    }\n\n    Payment[] public payments;\n\n    uint supCnt=0;\n    uint orgCnt=0;\n    uint transactionCount=0;\n\n    event AddOrg(address addr,uint id,string name,string place);\n\n    function addOrganization(\n        address _address,\n        string memory _name,\n        string memory _place\n    ) public onlyOwner(){\n        orgCnt+=1;\n        orgs[_address]=Organization(_address,orgCnt,_name,_place);\n        emit AddOrg(_address,orgCnt,_name,_place);\n    }\n\n    event removeOrg(uint id, address addr, string name, string place);\n    function removeOrganization(\n        address _address\n    ) public onlyOwner(){\n        emit removeOrg(orgs[_address].id, orgs[_address].addr, orgs[_address].name, orgs[_address].place);\n        delete orgs[_address];\n    }\n\n    event AddSup(address addr,uint id,string name,string place);\n\n    function addSupplier(\n        address _address,\n        string memory _name,\n        string memory _place\n    ) public onlyOwner(){\n        supCnt+=1;\n        suppliers[supCnt]=Supplier(_address,supCnt,_name,_place);\n        emit AddSup(_address,orgCnt,_name,_place);\n    }\n\n\n    event Pay(address from,address to, uint amount, uint time,string message);\n\n    function pay(address rec,uint amount,string memory message) public{\n        transactionCount+=1;\n        payments.push(Payment(msg.sender,rec, amount, block.timestamp, message));\n        // bool sent = rec.send(amount);\n        // require(sent, \"Failed to send Ether\");\n        emit Pay(msg.sender,rec, amount,block.timestamp, message);\n    }\n\n    function getAllTransactions() public view returns(Payment[] memory){\n        return payments;\n    }\n    Payment[] vals;\n    function getSpecificTrans(address addr) public returns(address[] memory,uint[] memory){\n        address[] memory addresses=new address[](payments.length);\n        uint[] memory amounts=new uint[](payments.length);\n        for(uint i=0;i<payments.length;i++){\n            addresses[i]=payments[i].sender;\n            amounts[i]=payments[i].amt;\n            if(payments[i].sender==addr){\n                vals.push(payments[i]);\n            }\n        }\n        return (addresses,amounts);\n    }\n\n    struct Request{\n        address sender;\n        address receiver;\n        uint amt;\n        string message;\n        uint timestamp;\n    }\n    Request[] public requests;\n\n\n    event Req(address from,address to,uint value,string message,uint time);\n\n    function requestFunds(\n        address provider,\n        uint amt,\n        string memory message\n    ) public{\n        requests.push(Request(msg.sender,provider,amt,message, block.timestamp));\n        emit Req(msg.sender,provider,amt,message,block.timestamp);\n    }\n\n    struct Confirmation{\n        address sender;\n        address receiver;\n        uint timestamp;\n        string message;\n    }\n\n    Confirmation[] confOrders;\n    event ConfirmOrder(address from, address to,uint timestamp,string message);\n    \n    function confirmOrder(\n        address receiver,\n        string memory message\n        ) public{\n            confOrders.push(Confirmation(msg.sender, receiver, block.timestamp, message));\n            emit ConfirmOrder(msg.sender, receiver, block.timestamp, message);\n    }\n}",
  "sourcePath": "/home/pavan/Desktop/Project/contracts/Funds.sol",
  "compiler": {
    "name": "solc",
    "version": "0.5.16+commit.9c3226ce.Emscripten.clang"
  },
  "schemaVersion": "3.4.10",
  "updatedAt": "2022-12-04T04:20:34.111Z",
  "networkType": "ethereum",
  "devdoc": {
    "methods": {}
  },
  "userdoc": {
    "methods": {}
  }
}