{
  "contractName": "Funds",
  "abi": [
    {
      "inputs": [],
      "payable": false,
      "stateMutability": "nonpayable",
      "type": "constructor"
    },
    {
      "anonymous": false,
      "inputs": [
        {
          "indexed": false,
          "internalType": "address",
          "name": "addr",
          "type": "address"
        },
        {
          "indexed": false,
          "internalType": "uint256",
          "name": "id",
          "type": "uint256"
        },
        {
          "indexed": false,
          "internalType": "string",
          "name": "name",
          "type": "string"
        },
        {
          "indexed": false,
          "internalType": "string",
          "name": "place",
          "type": "string"
        }
      ],
      "name": "AddOrg",
      "type": "event"
    },
    {
      "anonymous": false,
      "inputs": [
        {
          "indexed": false,
          "internalType": "address",
          "name": "addr",
          "type": "address"
        },
        {
          "indexed": false,
          "internalType": "uint256",
          "name": "id",
          "type": "uint256"
        },
        {
          "indexed": false,
          "internalType": "string",
          "name": "name",
          "type": "string"
        },
        {
          "indexed": false,
          "internalType": "string",
          "name": "place",
          "type": "string"
        }
      ],
      "name": "AddSup",
      "type": "event"
    },
    {
      "anonymous": false,
      "inputs": [
        {
          "indexed": false,
          "internalType": "address",
          "name": "from",
          "type": "address"
        },
        {
          "indexed": false,
          "internalType": "address",
          "name": "to",
          "type": "address"
        },
        {
          "indexed": false,
          "internalType": "uint256",
          "name": "timestamp",
          "type": "uint256"
        },
        {
          "indexed": false,
          "internalType": "string",
          "name": "message",
          "type": "string"
        }
      ],
      "name": "ConfirmOrder",
      "type": "event"
    },
    {
      "anonymous": false,
      "inputs": [
        {
          "indexed": false,
          "internalType": "address",
          "name": "from",
          "type": "address"
        },
        {
          "indexed": false,
          "internalType": "address",
          "name": "to",
          "type": "address"
        },
        {
          "indexed": false,
          "internalType": "uint256",
          "name": "amount",
          "type": "uint256"
        },
        {
          "indexed": false,
          "internalType": "uint256",
          "name": "time",
          "type": "uint256"
        },
        {
          "indexed": false,
          "internalType": "string",
          "name": "message",
          "type": "string"
        }
      ],
      "name": "Pay",
      "type": "event"
    },
    {
      "anonymous": false,
      "inputs": [
        {
          "indexed": false,
          "internalType": "address",
          "name": "from",
          "type": "address"
        },
        {
          "indexed": false,
          "internalType": "address",
          "name": "to",
          "type": "address"
        },
        {
          "indexed": false,
          "internalType": "uint256",
          "name": "value",
          "type": "uint256"
        },
        {
          "indexed": false,
          "internalType": "string",
          "name": "message",
          "type": "string"
        },
        {
          "indexed": false,
          "internalType": "uint256",
          "name": "time",
          "type": "uint256"
        }
      ],
      "name": "Req",
      "type": "event"
    },
    {
      "anonymous": false,
      "inputs": [
        {
          "indexed": false,
          "internalType": "uint256",
          "name": "id",
          "type": "uint256"
        },
        {
          "indexed": false,
          "internalType": "address",
          "name": "addr",
          "type": "address"
        },
        {
          "indexed": false,
          "internalType": "string",
          "name": "name",
          "type": "string"
        },
        {
          "indexed": false,
          "internalType": "string",
          "name": "place",
          "type": "string"
        }
      ],
      "name": "removeOrg",
      "type": "event"
    },
    {
      "anonymous": false,
      "inputs": [
        {
          "indexed": false,
          "internalType": "uint256",
          "name": "id",
          "type": "uint256"
        },
        {
          "indexed": false,
          "internalType": "address",
          "name": "addr",
          "type": "address"
        },
        {
          "indexed": false,
          "internalType": "string",
          "name": "name",
          "type": "string"
        },
        {
          "indexed": false,
          "internalType": "string",
          "name": "place",
          "type": "string"
        }
      ],
      "name": "removeSup",
      "type": "event"
    },
    {
      "constant": true,
      "inputs": [],
      "name": "Owner",
      "outputs": [
        {
          "internalType": "address",
          "name": "",
          "type": "address"
        }
      ],
      "payable": false,
      "stateMutability": "view",
      "type": "function"
    },
    {
      "constant": true,
      "inputs": [
        {
          "internalType": "address",
          "name": "",
          "type": "address"
        }
      ],
      "name": "orgs",
      "outputs": [
        {
          "internalType": "address",
          "name": "addr",
          "type": "address"
        },
        {
          "internalType": "uint256",
          "name": "id",
          "type": "uint256"
        },
        {
          "internalType": "string",
          "name": "name",
          "type": "string"
        },
        {
          "internalType": "string",
          "name": "place",
          "type": "string"
        }
      ],
      "payable": false,
      "stateMutability": "view",
      "type": "function"
    },
    {
      "constant": true,
      "inputs": [
        {
          "internalType": "uint256",
          "name": "",
          "type": "uint256"
        }
      ],
      "name": "payments",
      "outputs": [
        {
          "internalType": "address",
          "name": "sender",
          "type": "address"
        },
        {
          "internalType": "address",
          "name": "receiver",
          "type": "address"
        },
        {
          "internalType": "uint256",
          "name": "amt",
          "type": "uint256"
        },
        {
          "internalType": "uint256",
          "name": "timestamp",
          "type": "uint256"
        },
        {
          "internalType": "string",
          "name": "message",
          "type": "string"
        }
      ],
      "payable": false,
      "stateMutability": "view",
      "type": "function"
    },
    {
      "constant": true,
      "inputs": [
        {
          "internalType": "uint256",
          "name": "",
          "type": "uint256"
        }
      ],
      "name": "requests",
      "outputs": [
        {
          "internalType": "address",
          "name": "sender",
          "type": "address"
        },
        {
          "internalType": "address",
          "name": "receiver",
          "type": "address"
        },
        {
          "internalType": "uint256",
          "name": "amt",
          "type": "uint256"
        },
        {
          "internalType": "string",
          "name": "message",
          "type": "string"
        },
        {
          "internalType": "uint256",
          "name": "timestamp",
          "type": "uint256"
        }
      ],
      "payable": false,
      "stateMutability": "view",
      "type": "function"
    },
    {
      "constant": true,
      "inputs": [
        {
          "internalType": "address",
          "name": "",
          "type": "address"
        }
      ],
      "name": "suppliers",
      "outputs": [
        {
          "internalType": "address",
          "name": "addr",
          "type": "address"
        },
        {
          "internalType": "uint256",
          "name": "id",
          "type": "uint256"
        },
        {
          "internalType": "string",
          "name": "name",
          "type": "string"
        },
        {
          "internalType": "string",
          "name": "place",
          "type": "string"
        }
      ],
      "payable": false,
      "stateMutability": "view",
      "type": "function"
    },
    {
      "constant": false,
      "inputs": [
        {
          "internalType": "address",
          "name": "_address",
          "type": "address"
        },
        {
          "internalType": "string",
          "name": "_name",
          "type": "string"
        },
        {
          "internalType": "string",
          "name": "_place",
          "type": "string"
        }
      ],
      "name": "addOrganization",
      "outputs": [],
      "payable": false,
      "stateMutability": "nonpayable",
      "type": "function"
    },
    {
      "constant": false,
      "inputs": [
        {
          "internalType": "address",
          "name": "_address",
          "type": "address"
        }
      ],
      "name": "removeOrganization",
      "outputs": [],
      "payable": false,
      "stateMutability": "nonpayable",
      "type": "function"
    },
    {
      "constant": true,
      "inputs": [
        {
          "internalType": "address",
          "name": "_address",
          "type": "address"
        }
      ],
      "name": "getOrganization",
      "outputs": [
        {
          "components": [
            {
              "internalType": "address",
              "name": "addr",
              "type": "address"
            },
            {
              "internalType": "uint256",
              "name": "id",
              "type": "uint256"
            },
            {
              "internalType": "string",
              "name": "name",
              "type": "string"
            },
            {
              "internalType": "string",
              "name": "place",
              "type": "string"
            }
          ],
          "internalType": "struct Funds.Organization",
          "name": "",
          "type": "tuple"
        }
      ],
      "payable": false,
      "stateMutability": "view",
      "type": "function"
    },
    {
      "constant": false,
      "inputs": [
        {
          "internalType": "address",
          "name": "_address",
          "type": "address"
        },
        {
          "internalType": "string",
          "name": "_name",
          "type": "string"
        },
        {
          "internalType": "string",
          "name": "_place",
          "type": "string"
        }
      ],
      "name": "addSupplier",
      "outputs": [],
      "payable": false,
      "stateMutability": "nonpayable",
      "type": "function"
    },
    {
      "constant": false,
      "inputs": [
        {
          "internalType": "address",
          "name": "_address",
          "type": "address"
        }
      ],
      "name": "removeSupplier",
      "outputs": [],
      "payable": false,
      "stateMutability": "nonpayable",
      "type": "function"
    },
    {
      "constant": true,
      "inputs": [
        {
          "internalType": "address",
          "name": "_address",
          "type": "address"
        }
      ],
      "name": "getSuplier",
      "outputs": [
        {
          "components": [
            {
              "internalType": "address",
              "name": "addr",
              "type": "address"
            },
            {
              "internalType": "uint256",
              "name": "id",
              "type": "uint256"
            },
            {
              "internalType": "string",
              "name": "name",
              "type": "string"
            },
            {
              "internalType": "string",
              "name": "place",
              "type": "string"
            }
          ],
          "internalType": "struct Funds.Supplier",
          "name": "",
          "type": "tuple"
        }
      ],
      "payable": false,
      "stateMutability": "view",
      "type": "function"
    },
    {
      "constant": false,
      "inputs": [
        {
          "internalType": "address",
          "name": "rec",
          "type": "address"
        },
        {
          "internalType": "uint256",
          "name": "amount",
          "type": "uint256"
        },
        {
          "internalType": "string",
          "name": "message",
          "type": "string"
        }
      ],
      "name": "pay",
      "outputs": [],
      "payable": false,
      "stateMutability": "nonpayable",
      "type": "function"
    },
    {
      "constant": true,
      "inputs": [],
      "name": "getAllTransactions",
      "outputs": [
        {
          "components": [
            {
              "internalType": "address",
              "name": "sender",
              "type": "address"
            },
            {
              "internalType": "address",
              "name": "receiver",
              "type": "address"
            },
            {
              "internalType": "uint256",
              "name": "amt",
              "type": "uint256"
            },
            {
              "internalType": "uint256",
              "name": "timestamp",
              "type": "uint256"
            },
            {
              "internalType": "string",
              "name": "message",
              "type": "string"
            }
          ],
          "internalType": "struct Funds.Payment[]",
          "name": "",
          "type": "tuple[]"
        }
      ],
      "payable": false,
      "stateMutability": "view",
      "type": "function"
    },
    {
      "constant": false,
      "inputs": [
        {
          "internalType": "address",
          "name": "provider",
          "type": "address"
        },
        {
          "internalType": "uint256",
          "name": "amt",
          "type": "uint256"
        },
        {
          "internalType": "string",
          "name": "message",
          "type": "string"
        }
      ],
      "name": "requestFunds",
      "outputs": [],
      "payable": false,
      "stateMutability": "nonpayable",
      "type": "function"
    },
    {
      "constant": false,
      "inputs": [
        {
          "internalType": "address",
          "name": "receiver",
          "type": "address"
        },
        {
          "internalType": "string",
          "name": "message",
          "type": "string"
        }
      ],
      "name": "confirmOrder",
      "outputs": [],
      "payable": false,
      "stateMutability": "nonpayable",
      "type": "function"
    }
  ],
  "bytecode": "0x608060405260006004556000600555600060065534801561001f57600080fd5b50336000806101000a81548173ffffffffffffffffffffffffffffffffffffffff021916908373ffffffffffffffffffffffffffffffffffffffff1602179055506126e48061006f6000396000f3fe608060405234801561001057600080fd5b50600436106100f55760003560e01c806381d12c5811610097578063b5fabfda11610066578063b5fabfda14610290578063cc412ce3146102ac578063d2c30a6d146102c8578063fed53b8f146102f8576100f5565b806381d12c58146101ee57806387d81789146102225780639e79612214610256578063b4a99a4e14610272576100f5565b80633bf479ff116100d35780633bf479ff146101675780633d47a3541461019a5780634a4bdb30146101b65780636ff2c610146101d2576100f5565b80630f5f817a146100fa57806316dc15fe1461011657806327506f5314610149575b600080fd5b610114600480360361010f9190810190611cbd565b610328565b005b610130600480360361012b9190810190611cbd565b610578565b60405161014094939291906123c3565b60405180910390f35b6101516106f8565b60405161015e9190612416565b60405180910390f35b610181600480360361017c9190810190611cbd565b6108b9565b60405161019194939291906123c3565b60405180910390f35b6101b460048036036101af9190810190611d3a565b610a39565b005b6101d060048036036101cb9190810190611db9565b610bed565b005b6101ec60048036036101e79190810190611cbd565b610d84565b005b61020860048036036102039190810190611e20565b610fd4565b6040516102199594939291906122bc565b60405180910390f35b61023c60048036036102379190810190611e20565b6110ef565b60405161024d959493929190612316565b60405180910390f35b610270600480360361026b9190810190611db9565b61120a565b005b61027a611390565b60405161028791906121a1565b60405180910390f35b6102aa60048036036102a59190810190611d3a565b6113b5565b005b6102c660048036036102c19190810190611ce6565b611569565b005b6102e260048036036102dd9190810190611cbd565b6116dc565b6040516102ef9190612438565b60405180910390f35b610312600480360361030d9190810190611cbd565b6118d9565b60405161031f919061245a565b60405180910390f35b6000809054906101000a900473ffffffffffffffffffffffffffffffffffffffff1673ffffffffffffffffffffffffffffffffffffffff163373ffffffffffffffffffffffffffffffffffffffff161461038157600080fd5b7f5c0e78737ef1cd58e7abff279096e7264c361d014052457c59db2c65ada85415600160008373ffffffffffffffffffffffffffffffffffffffff1673ffffffffffffffffffffffffffffffffffffffff16815260200190815260200160002060010154600160008473ffffffffffffffffffffffffffffffffffffffff1673ffffffffffffffffffffffffffffffffffffffff16815260200190815260200160002060000160009054906101000a900473ffffffffffffffffffffffffffffffffffffffff16600160008573ffffffffffffffffffffffffffffffffffffffff1673ffffffffffffffffffffffffffffffffffffffff168152602001908152602001600020600201600160008673ffffffffffffffffffffffffffffffffffffffff1673ffffffffffffffffffffffffffffffffffffffff1681526020019081526020016000206003016040516104dc949392919061247c565b60405180910390a1600160008273ffffffffffffffffffffffffffffffffffffffff1673ffffffffffffffffffffffffffffffffffffffff168152602001908152602001600020600080820160006101000a81549073ffffffffffffffffffffffffffffffffffffffff021916905560018201600090556002820160006105639190611ad6565b6003820160006105739190611ad6565b505050565b60016020528060005260406000206000915090508060000160009054906101000a900473ffffffffffffffffffffffffffffffffffffffff1690806001015490806002018054600181600116156101000203166002900480601f0160208091040260200160405190810160405280929190818152602001828054600181600116156101000203166002900480156106505780601f1061062557610100808354040283529160200191610650565b820191906000526020600020905b81548152906001019060200180831161063357829003601f168201915b505050505090806003018054600181600116156101000203166002900480601f0160208091040260200160405190810160405280929190818152602001828054600181600116156101000203166002900480156106ee5780601f106106c3576101008083540402835291602001916106ee565b820191906000526020600020905b8154815290600101906020018083116106d157829003601f168201915b5050505050905084565b60606003805480602002602001604051908101604052809291908181526020016000905b828210156108b057838290600052602060002090600502016040518060a00160405290816000820160009054906101000a900473ffffffffffffffffffffffffffffffffffffffff1673ffffffffffffffffffffffffffffffffffffffff1673ffffffffffffffffffffffffffffffffffffffff1681526020016001820160009054906101000a900473ffffffffffffffffffffffffffffffffffffffff1673ffffffffffffffffffffffffffffffffffffffff1673ffffffffffffffffffffffffffffffffffffffff1681526020016002820154815260200160038201548152602001600482018054600181600116156101000203166002900480601f0160208091040260200160405190810160405280929190818152602001828054600181600116156101000203166002900480156108985780601f1061086d57610100808354040283529160200191610898565b820191906000526020600020905b81548152906001019060200180831161087b57829003601f168201915b5050505050815250508152602001906001019061071c565b50505050905090565b60026020528060005260406000206000915090508060000160009054906101000a900473ffffffffffffffffffffffffffffffffffffffff1690806001015490806002018054600181600116156101000203166002900480601f0160208091040260200160405190810160405280929190818152602001828054600181600116156101000203166002900480156109915780601f1061096657610100808354040283529160200191610991565b820191906000526020600020905b81548152906001019060200180831161097457829003601f168201915b505050505090806003018054600181600116156101000203166002900480601f016020809104026020016040519081016040528092919081815260200182805460018160011615610100020316600290048015610a2f5780601f10610a0457610100808354040283529160200191610a2f565b820191906000526020600020905b815481529060010190602001808311610a1257829003601f168201915b5050505050905084565b6000809054906101000a900473ffffffffffffffffffffffffffffffffffffffff1673ffffffffffffffffffffffffffffffffffffffff163373ffffffffffffffffffffffffffffffffffffffff1614610a9257600080fd5b600160056000828254019250508190555060405180608001604052808473ffffffffffffffffffffffffffffffffffffffff168152602001600554815260200183815260200182815250600260008573ffffffffffffffffffffffffffffffffffffffff1673ffffffffffffffffffffffffffffffffffffffff16815260200190815260200160002060008201518160000160006101000a81548173ffffffffffffffffffffffffffffffffffffffff021916908373ffffffffffffffffffffffffffffffffffffffff160217905550602082015181600101556040820151816002019080519060200190610b88929190611b1e565b506060820151816003019080519060200190610ba5929190611b1e565b509050507f2f6240b405d042590eb49eddbadd49e081c7d0ed66c00f4d9bf81011dd50319d836005548484604051610be09493929190612370565b60405180910390a1505050565b600160066000828254019250508190555060036040518060a001604052803373ffffffffffffffffffffffffffffffffffffffff1681526020018573ffffffffffffffffffffffffffffffffffffffff168152602001848152602001428152602001838152509080600181540180825580915050906001820390600052602060002090600502016000909192909190915060008201518160000160006101000a81548173ffffffffffffffffffffffffffffffffffffffff021916908373ffffffffffffffffffffffffffffffffffffffff16021790555060208201518160010160006101000a81548173ffffffffffffffffffffffffffffffffffffffff021916908373ffffffffffffffffffffffffffffffffffffffff16021790555060408201518160020155606082015181600301556080820151816004019080519060200190610d3c929190611b1e565b505050507fad04aaee5606745688780781d3bbd075a702540d82f41987d12252f5d163169c3384844285604051610d77959493929190612262565b60405180910390a1505050565b6000809054906101000a900473ffffffffffffffffffffffffffffffffffffffff1673ffffffffffffffffffffffffffffffffffffffff163373ffffffffffffffffffffffffffffffffffffffff1614610ddd57600080fd5b7f268656e33987d8d2afd02a8a14c5eda60d2c6c38a52f2c53c08a21531c186ae7600260008373ffffffffffffffffffffffffffffffffffffffff1673ffffffffffffffffffffffffffffffffffffffff16815260200190815260200160002060010154600260008473ffffffffffffffffffffffffffffffffffffffff1673ffffffffffffffffffffffffffffffffffffffff16815260200190815260200160002060000160009054906101000a900473ffffffffffffffffffffffffffffffffffffffff16600260008573ffffffffffffffffffffffffffffffffffffffff1673ffffffffffffffffffffffffffffffffffffffff168152602001908152602001600020600201600260008673ffffffffffffffffffffffffffffffffffffffff1673ffffffffffffffffffffffffffffffffffffffff168152602001908152602001600020600301604051610f38949392919061247c565b60405180910390a1600260008273ffffffffffffffffffffffffffffffffffffffff1673ffffffffffffffffffffffffffffffffffffffff168152602001908152602001600020600080820160006101000a81549073ffffffffffffffffffffffffffffffffffffffff02191690556001820160009055600282016000610fbf9190611ad6565b600382016000610fcf9190611ad6565b505050565b60078181548110610fe157fe5b90600052602060002090600502016000915090508060000160009054906101000a900473ffffffffffffffffffffffffffffffffffffffff16908060010160009054906101000a900473ffffffffffffffffffffffffffffffffffffffff1690806002015490806003018054600181600116156101000203166002900480601f0160208091040260200160405190810160405280929190818152602001828054600181600116156101000203166002900480156110df5780601f106110b4576101008083540402835291602001916110df565b820191906000526020600020905b8154815290600101906020018083116110c257829003601f168201915b5050505050908060040154905085565b600381815481106110fc57fe5b90600052602060002090600502016000915090508060000160009054906101000a900473ffffffffffffffffffffffffffffffffffffffff16908060010160009054906101000a900473ffffffffffffffffffffffffffffffffffffffff1690806002015490806003015490806004018054600181600116156101000203166002900480601f0160208091040260200160405190810160405280929190818152602001828054600181600116156101000203166002900480156112005780601f106111d557610100808354040283529160200191611200565b820191906000526020600020905b8154815290600101906020018083116111e357829003601f168201915b5050505050905085565b60076040518060a001604052803373ffffffffffffffffffffffffffffffffffffffff1681526020018573ffffffffffffffffffffffffffffffffffffffff168152602001848152602001838152602001428152509080600181540180825580915050906001820390600052602060002090600502016000909192909190915060008201518160000160006101000a81548173ffffffffffffffffffffffffffffffffffffffff021916908373ffffffffffffffffffffffffffffffffffffffff16021790555060208201518160010160006101000a81548173ffffffffffffffffffffffffffffffffffffffff021916908373ffffffffffffffffffffffffffffffffffffffff16021790555060408201518160020155606082015181600301908051906020019061133e929190611b1e565b50608082015181600401555050507fee3eaa2f8139f744104fa23c347c337824e131f8ce1644303c1d537093c455053384848442604051611383959493929190612208565b60405180910390a1505050565b6000809054906101000a900473ffffffffffffffffffffffffffffffffffffffff1681565b6000809054906101000a900473ffffffffffffffffffffffffffffffffffffffff1673ffffffffffffffffffffffffffffffffffffffff163373ffffffffffffffffffffffffffffffffffffffff161461140e57600080fd5b600160046000828254019250508190555060405180608001604052808473ffffffffffffffffffffffffffffffffffffffff168152602001600454815260200183815260200182815250600160008573ffffffffffffffffffffffffffffffffffffffff1673ffffffffffffffffffffffffffffffffffffffff16815260200190815260200160002060008201518160000160006101000a81548173ffffffffffffffffffffffffffffffffffffffff021916908373ffffffffffffffffffffffffffffffffffffffff160217905550602082015181600101556040820151816002019080519060200190611504929190611b1e565b506060820151816003019080519060200190611521929190611b1e565b509050507f77fea408e8c5fbfb87350b85db1010a501f9f87f6f858a8e4239b523dd9973ca83600554848460405161155c9493929190612370565b60405180910390a1505050565b600860405180608001604052803373ffffffffffffffffffffffffffffffffffffffff1681526020018473ffffffffffffffffffffffffffffffffffffffff168152602001428152602001838152509080600181540180825580915050906001820390600052602060002090600402016000909192909190915060008201518160000160006101000a81548173ffffffffffffffffffffffffffffffffffffffff021916908373ffffffffffffffffffffffffffffffffffffffff16021790555060208201518160010160006101000a81548173ffffffffffffffffffffffffffffffffffffffff021916908373ffffffffffffffffffffffffffffffffffffffff160217905550604082015181600201556060820151816003019080519060200190611697929190611b1e565b505050507fb2963dd8481351b1cf5b4d18ca5d1dbe0f6508a38acb8551810afc0900dda8ba338342846040516116d094939291906121bc565b60405180910390a15050565b6116e4611b9e565b600260008373ffffffffffffffffffffffffffffffffffffffff1673ffffffffffffffffffffffffffffffffffffffff1681526020019081526020016000206040518060800160405290816000820160009054906101000a900473ffffffffffffffffffffffffffffffffffffffff1673ffffffffffffffffffffffffffffffffffffffff1673ffffffffffffffffffffffffffffffffffffffff16815260200160018201548152602001600282018054600181600116156101000203166002900480601f0160208091040260200160405190810160405280929190818152602001828054600181600116156101000203166002900480156118275780601f106117fc57610100808354040283529160200191611827565b820191906000526020600020905b81548152906001019060200180831161180a57829003601f168201915b50505050508152602001600382018054600181600116156101000203166002900480601f0160208091040260200160405190810160405280929190818152602001828054600181600116156101000203166002900480156118c95780601f1061189e576101008083540402835291602001916118c9565b820191906000526020600020905b8154815290600101906020018083116118ac57829003601f168201915b5050505050815250509050919050565b6118e1611bdc565b600160008373ffffffffffffffffffffffffffffffffffffffff1673ffffffffffffffffffffffffffffffffffffffff1681526020019081526020016000206040518060800160405290816000820160009054906101000a900473ffffffffffffffffffffffffffffffffffffffff1673ffffffffffffffffffffffffffffffffffffffff1673ffffffffffffffffffffffffffffffffffffffff16815260200160018201548152602001600282018054600181600116156101000203166002900480601f016020809104026020016040519081016040528092919081815260200182805460018160011615610100020316600290048015611a245780601f106119f957610100808354040283529160200191611a24565b820191906000526020600020905b815481529060010190602001808311611a0757829003601f168201915b50505050508152602001600382018054600181600116156101000203166002900480601f016020809104026020016040519081016040528092919081815260200182805460018160011615610100020316600290048015611ac65780601f10611a9b57610100808354040283529160200191611ac6565b820191906000526020600020905b815481529060010190602001808311611aa957829003601f168201915b5050505050815250509050919050565b50805460018160011615610100020316600290046000825580601f10611afc5750611b1b565b601f016020900490600052602060002090810190611b1a9190611c1a565b5b50565b828054600181600116156101000203166002900490600052602060002090601f016020900481019282601f10611b5f57805160ff1916838001178555611b8d565b82800160010185558215611b8d579182015b82811115611b8c578251825591602001919060010190611b71565b5b509050611b9a9190611c1a565b5090565b6040518060800160405280600073ffffffffffffffffffffffffffffffffffffffff1681526020016000815260200160608152602001606081525090565b6040518060800160405280600073ffffffffffffffffffffffffffffffffffffffff1681526020016000815260200160608152602001606081525090565b611c3c91905b80821115611c38576000816000905550600101611c20565b5090565b90565b600081359050611c4e81612673565b92915050565b600082601f830112611c6557600080fd5b8135611c78611c73826124fc565b6124cf565b91508082526020830160208301858383011115611c9457600080fd5b611c9f838284612620565b50505092915050565b600081359050611cb78161268a565b92915050565b600060208284031215611ccf57600080fd5b6000611cdd84828501611c3f565b91505092915050565b60008060408385031215611cf957600080fd5b6000611d0785828601611c3f565b925050602083013567ffffffffffffffff811115611d2457600080fd5b611d3085828601611c54565b9150509250929050565b600080600060608486031215611d4f57600080fd5b6000611d5d86828701611c3f565b935050602084013567ffffffffffffffff811115611d7a57600080fd5b611d8686828701611c54565b925050604084013567ffffffffffffffff811115611da357600080fd5b611daf86828701611c54565b9150509250925092565b600080600060608486031215611dce57600080fd5b6000611ddc86828701611c3f565b9350506020611ded86828701611ca8565b925050604084013567ffffffffffffffff811115611e0a57600080fd5b611e1686828701611c54565b9150509250925092565b600060208284031215611e3257600080fd5b6000611e4084828501611ca8565b91505092915050565b6000611e5583836120a3565b905092915050565b611e66816125ea565b82525050565b611e75816125ae565b82525050565b611e84816125ae565b82525050565b6000611e958261254d565b611e9f818561257b565b935083602082028501611eb185612528565b8060005b85811015611eed5784840389528151611ece8582611e49565b9450611ed98361256e565b925060208a01995050600181019050611eb5565b50829750879550505050505092915050565b6000611f0a82612563565b611f14818561259d565b9350611f2481856020860161262f565b611f2d81612662565b840191505092915050565b6000611f4382612558565b611f4d818561258c565b9350611f5d81856020860161262f565b611f6681612662565b840191505092915050565b6000611f7c82612558565b611f86818561259d565b9350611f9681856020860161262f565b611f9f81612662565b840191505092915050565b600081546001811660008114611fc75760018114611fed57612031565b607f6002830416611fd8818761259d565b955060ff198316865260208601935050612031565b60028204611ffb818761259d565b955061200685612538565b60005b8281101561202857815481890152600182019150602081019050612009565b80880195505050505b505092915050565b60006080830160008301516120516000860182611e6c565b5060208301516120646020860182612183565b506040830151848203604086015261207c8282611f38565b915050606083015184820360608601526120968282611f38565b9150508091505092915050565b600060a0830160008301516120bb6000860182611e6c565b5060208301516120ce6020860182611e6c565b5060408301516120e16040860182612183565b5060608301516120f46060860182612183565b506080830151848203608086015261210c8282611f38565b9150508091505092915050565b60006080830160008301516121316000860182611e6c565b5060208301516121446020860182612183565b506040830151848203604086015261215c8282611f38565b915050606083015184820360608601526121768282611f38565b9150508091505092915050565b61218c816125e0565b82525050565b61219b816125e0565b82525050565b60006020820190506121b66000830184611e7b565b92915050565b60006080820190506121d16000830187611e5d565b6121de6020830186611e7b565b6121eb6040830185612192565b81810360608301526121fd8184611eff565b905095945050505050565b600060a08201905061221d6000830188611e5d565b61222a6020830187611e7b565b6122376040830186612192565b81810360608301526122498185611eff565b90506122586080830184612192565b9695505050505050565b600060a0820190506122776000830188611e5d565b6122846020830187611e7b565b6122916040830186612192565b61229e6060830185612192565b81810360808301526122b08184611eff565b90509695505050505050565b600060a0820190506122d16000830188611e7b565b6122de6020830187611e7b565b6122eb6040830186612192565b81810360608301526122fd8185611f71565b905061230c6080830184612192565b9695505050505050565b600060a08201905061232b6000830188611e7b565b6123386020830187611e7b565b6123456040830186612192565b6123526060830185612192565b81810360808301526123648184611f71565b90509695505050505050565b60006080820190506123856000830187611e7b565b6123926020830186612192565b81810360408301526123a48185611eff565b905081810360608301526123b88184611eff565b905095945050505050565b60006080820190506123d86000830187611e7b565b6123e56020830186612192565b81810360408301526123f78185611f71565b9050818103606083015261240b8184611f71565b905095945050505050565b600060208201905081810360008301526124308184611e8a565b905092915050565b600060208201905081810360008301526124528184612039565b905092915050565b600060208201905081810360008301526124748184612119565b905092915050565b60006080820190506124916000830187612192565b61249e6020830186611e7b565b81810360408301526124b08185611faa565b905081810360608301526124c48184611faa565b905095945050505050565b6000604051905081810181811067ffffffffffffffff821117156124f257600080fd5b8060405250919050565b600067ffffffffffffffff82111561251357600080fd5b601f19601f8301169050602081019050919050565b6000819050602082019050919050565b60008190508160005260206000209050919050565b600081519050919050565b600081519050919050565b600081519050919050565b6000602082019050919050565b600082825260208201905092915050565b600082825260208201905092915050565b600082825260208201905092915050565b60006125b9826125c0565b9050919050565b600073ffffffffffffffffffffffffffffffffffffffff82169050919050565b6000819050919050565b60006125f5826125fc565b9050919050565b60006126078261260e565b9050919050565b6000612619826125c0565b9050919050565b82818337600083830152505050565b60005b8381101561264d578082015181840152602081019050612632565b8381111561265c576000848401525b50505050565b6000601f19601f8301169050919050565b61267c816125ae565b811461268757600080fd5b50565b612693816125e0565b811461269e57600080fd5b5056fea365627a7a723158202b50a02c4afed446a24cf0f7b69117ee1194b6c1bb2b6d8cada2da1d5654fb2c6c6578706572696d656e74616cf564736f6c63430005100040",
  "source": "// SPDX-License-Identifier: MIT\npragma solidity >=0.4.22 <0.9.0;\npragma experimental ABIEncoderV2;\n\ncontract Funds {\n    //Smart Contract owner will be the person who deploys the contract only he can authorize various roles like retailer, Manufacturer,etc\n    address public Owner;\n\n    //note this constructor will be called when smart contract will be deployed on blockchain\n    constructor() public{\n        Owner = msg.sender;\n    }\n\n    modifier onlyOwner() {\n        require(msg.sender == Owner);\n        _;\n    }\n\n    struct Supplier{\n        address addr;\n        uint id;\n        string name;\n        string place;\n    }\n\n    mapping(address=>Supplier) public suppliers;\n\n    struct Organization{\n        address addr;\n        uint id;\n        string name;\n        string place;\n    }\n    \n    mapping(address=>Organization) public orgs;\n\n    struct Payment{//transactioin details\n        address sender;\n        address receiver;\n        uint amt;\n        uint timestamp;\n        string message;\n    }\n\n    Payment[] public payments;\n\n    uint supCnt=0;\n    uint orgCnt=0;\n    uint transactionCount=0;\n\n    event AddOrg(address addr,uint id,string name,string place);\n\n    function addOrganization(\n        address _address,\n        string memory _name,\n        string memory _place\n    ) public onlyOwner(){\n        orgCnt+=1;\n        orgs[_address]=Organization(_address,orgCnt,_name,_place);\n        emit AddOrg(_address,orgCnt,_name,_place);\n    }\n\n    event removeOrg(uint id, address addr, string name, string place);\n    function removeOrganization(\n        address _address\n    ) public onlyOwner(){\n        emit removeOrg(orgs[_address].id, orgs[_address].addr, orgs[_address].name, orgs[_address].place);\n        delete orgs[_address];\n    }\n    function getOrganization(address _address) public view returns (Organization memory){\n        return orgs[_address];\n    }\n\n    event AddSup(address addr,uint id,string name,string place);\n    event removeSup(uint id,address addr,string name,string place);\n\n    function addSupplier(\n        address _address,\n        string memory _name,\n        string memory _place\n    ) public onlyOwner(){\n        supCnt+=1;\n        suppliers[_address]=Supplier(_address,supCnt,_name,_place);\n        emit AddSup(_address,orgCnt,_name,_place);\n    }\n    function removeSupplier(\n        address _address\n    ) public onlyOwner(){\n        emit removeSup(suppliers[_address].id, suppliers[_address].addr, suppliers[_address].name, suppliers[_address].place);\n        delete suppliers[_address];\n    }\n\n    function getSuplier(address _address) public view returns(Supplier memory){\n        return suppliers[_address];\n    }\n\n    event Pay(address from,address to, uint amount, uint time,string message);\n\n    function pay(address rec,uint amount,string memory message) public{\n        transactionCount+=1;\n        payments.push(Payment(msg.sender,rec, amount, block.timestamp, message));\n        // bool sent = rec.send(amount);\n        // require(sent, \"Failed to send Ether\");\n        emit Pay(msg.sender,rec, amount,block.timestamp, message);\n    }\n\n    function getAllTransactions() public view returns(Payment[] memory){\n        return payments;\n    }\n\n    struct Request{\n        address sender;\n        address receiver;\n        uint amt;\n        string message;\n        uint timestamp;\n    }\n    Request[] public requests;\n\n\n    event Req(address from,address to,uint value,string message,uint time);\n\n    function requestFunds(\n        address provider,\n        uint amt,\n        string memory message\n    ) public{\n        requests.push(Request(msg.sender,provider,amt,message, block.timestamp));\n        emit Req(msg.sender,provider,amt,message,block.timestamp);\n    }\n\n    struct Confirmation{\n        address sender;\n        address receiver;\n        uint timestamp;\n        string message;\n    }\n\n    Confirmation[] confOrders;\n    event ConfirmOrder(address from, address to,uint timestamp,string message);\n    \n    function confirmOrder(\n        address receiver,\n        string memory message\n        ) public{\n            confOrders.push(Confirmation(msg.sender, receiver, block.timestamp, message));\n            emit ConfirmOrder(msg.sender, receiver, block.timestamp, message);\n    }\n}",
  "sourcePath": "/home/pavan/Desktop/Project/contracts/Funds.sol",
  "compiler": {
    "name": "solc",
    "version": "0.5.16+commit.9c3226ce.Emscripten.clang"
  },
  "schemaVersion": "3.4.10",
  "updatedAt": "2022-12-05T18:20:34.023Z",
  "networkType": "ethereum",
  "devdoc": {
    "methods": {}
  },
  "userdoc": {
    "methods": {}
  }
}